{"abi":[{"type":"constructor","inputs":[],"stateMutability":"nonpayable"},{"type":"function","name":"CBBTC","inputs":[],"outputs":[{"name":"","type":"address","internalType":"address"}],"stateMutability":"view"},{"type":"function","name":"CBBTC_DECIMALS","inputs":[],"outputs":[{"name":"","type":"uint256","internalType":"uint256"}],"stateMutability":"view"},{"type":"function","name":"USDC","inputs":[],"outputs":[{"name":"","type":"address","internalType":"address"}],"stateMutability":"view"},{"type":"function","name":"USDC_DECIMALS","inputs":[],"outputs":[{"name":"","type":"uint256","internalType":"uint256"}],"stateMutability":"view"},{"type":"function","name":"WETH","inputs":[],"outputs":[{"name":"","type":"address","internalType":"address"}],"stateMutability":"view"},{"type":"function","name":"WETH_DECIMALS","inputs":[],"outputs":[{"name":"","type":"uint256","internalType":"uint256"}],"stateMutability":"view"},{"type":"function","name":"btcPriceUsdc","inputs":[],"outputs":[{"name":"","type":"uint256","internalType":"uint256"}],"stateMutability":"view"},{"type":"function","name":"calculateFee","inputs":[{"name":"tokenAmount","type":"uint256","internalType":"uint256"},{"name":"fiatAmount","type":"uint256","internalType":"uint256"},{"name":"token","type":"address","internalType":"address"},{"name":"buyer","type":"address","internalType":"address"},{"name":"isPublic","type":"bool","internalType":"bool"}],"outputs":[{"name":"feeTokens","type":"uint256","internalType":"uint256"}],"stateMutability":"view"},{"type":"function","name":"ethPriceUsdc","inputs":[],"outputs":[{"name":"","type":"uint256","internalType":"uint256"}],"stateMutability":"view"},{"type":"function","name":"getFeeRate","inputs":[],"outputs":[{"name":"","type":"uint256","internalType":"uint256"}],"stateMutability":"view"},{"type":"function","name":"getPrivateFee","inputs":[{"name":"token","type":"address","internalType":"address"}],"outputs":[{"name":"","type":"uint256","internalType":"uint256"}],"stateMutability":"view"},{"type":"function","name":"getPrivateFeeRate","inputs":[],"outputs":[{"name":"","type":"uint256","internalType":"uint256"}],"stateMutability":"view"},{"type":"function","name":"getPublicFee","inputs":[{"name":"token","type":"address","internalType":"address"}],"outputs":[{"name":"","type":"uint256","internalType":"uint256"}],"stateMutability":"view"},{"type":"function","name":"getTokenPriceUsdc","inputs":[{"name":"token","type":"address","internalType":"address"}],"outputs":[{"name":"","type":"uint256","internalType":"uint256"}],"stateMutability":"view"},{"type":"function","name":"isTokenSupported","inputs":[{"name":"token","type":"address","internalType":"address"}],"outputs":[{"name":"","type":"bool","internalType":"bool"}],"stateMutability":"pure"},{"type":"function","name":"owner","inputs":[],"outputs":[{"name":"","type":"address","internalType":"address"}],"stateMutability":"view"},{"type":"function","name":"privateFeeUsdc","inputs":[],"outputs":[{"name":"","type":"uint256","internalType":"uint256"}],"stateMutability":"view"},{"type":"function","name":"publicFeeUsdc","inputs":[],"outputs":[{"name":"","type":"uint256","internalType":"uint256"}],"stateMutability":"view"},{"type":"function","name":"renounceOwnership","inputs":[],"outputs":[],"stateMutability":"nonpayable"},{"type":"function","name":"setBtcPrice","inputs":[{"name":"newPrice","type":"uint256","internalType":"uint256"}],"outputs":[],"stateMutability":"nonpayable"},{"type":"function","name":"setEthPrice","inputs":[{"name":"newPrice","type":"uint256","internalType":"uint256"}],"outputs":[],"stateMutability":"nonpayable"},{"type":"function","name":"setPrivateFee","inputs":[{"name":"newFee","type":"uint256","internalType":"uint256"}],"outputs":[],"stateMutability":"nonpayable"},{"type":"function","name":"setPublicFee","inputs":[{"name":"newFee","type":"uint256","internalType":"uint256"}],"outputs":[],"stateMutability":"nonpayable"},{"type":"function","name":"transferOwnership","inputs":[{"name":"newOwner","type":"address","internalType":"address"}],"outputs":[],"stateMutability":"nonpayable"},{"type":"event","name":"BtcPriceUpdated","inputs":[{"name":"oldPrice","type":"uint256","indexed":false,"internalType":"uint256"},{"name":"newPrice","type":"uint256","indexed":false,"internalType":"uint256"}],"anonymous":false},{"type":"event","name":"EthPriceUpdated","inputs":[{"name":"oldPrice","type":"uint256","indexed":false,"internalType":"uint256"},{"name":"newPrice","type":"uint256","indexed":false,"internalType":"uint256"}],"anonymous":false},{"type":"event","name":"OwnershipTransferred","inputs":[{"name":"previousOwner","type":"address","indexed":true,"internalType":"address"},{"name":"newOwner","type":"address","indexed":true,"internalType":"address"}],"anonymous":false},{"type":"event","name":"PrivateFeeUpdated","inputs":[{"name":"oldFee","type":"uint256","indexed":false,"internalType":"uint256"},{"name":"newFee","type":"uint256","indexed":false,"internalType":"uint256"}],"anonymous":false},{"type":"event","name":"PublicFeeUpdated","inputs":[{"name":"oldFee","type":"uint256","indexed":false,"internalType":"uint256"},{"name":"newFee","type":"uint256","indexed":false,"internalType":"uint256"}],"anonymous":false},{"type":"event","name":"UnsupportedToken","inputs":[{"name":"token","type":"address","indexed":false,"internalType":"address"}],"anonymous":false},{"type":"error","name":"OwnableInvalidOwner","inputs":[{"name":"owner","type":"address","internalType":"address"}]},{"type":"error","name":"OwnableUnauthorizedAccount","inputs":[{"name":"account","type":"address","internalType":"address"}]}],"bytecode":{"object":"0x60808060405234608a5733156077575f8054336001600160a01b0319821681178355916001600160a01b03909116907f8be0079c531659141344cd1fd0a4f28419497f9722a3daafe3b4186f6b6457e09080a3614e20600155612710600255610bb8600355620186a0600455610923908161008f8239f35b631e4fbdf760e01b5f525f60045260245ffd5b5f80fdfe60806040526004361015610011575f80fd5b5f3560e01c80629f92621461067e57806351b8dc731461062a57806352302637146103f65780635a8557ec1461060d5780635ec4de261461013f5780636531b6dc146105a157806365b6b5cb1461054d578063715018a6146104f657806375151b631461047257806382c998601461041357806384e5eed0146103f657806389a30271146103c85780638da5cb5b146103a1578063903a38431461035b578063977b3dc714610330578063ad5c46481461030e578063c1419def146102f3578063ce31c91114610247578063d08aef7c1461022c578063d4520f971461020f578063d99a3291146101e1578063f2fde38b1461015c578063f2fe63251461013f5763fd46b80b14610120575f80fd5b3461013b575f36600319011261013b57602060405160088152f35b5f80fd5b3461013b575f36600319011261013b576020600254604051908152f35b3461013b57602036600319011261013b576101756106dd565b61017d6108c7565b6001600160a01b031680156101ce575f80546001600160a01b03198116831782556001600160a01b0316907f8be0079c531659141344cd1fd0a4f28419497f9722a3daafe3b4186f6b6457e09080a3005b631e4fbdf760e01b5f525f60045260245ffd5b3461013b575f36600319011261013b57602060405173cbb7c0000ab88b473b1f5afd9ef808440eed33bf8152f35b3461013b575f36600319011261013b576020600454604051908152f35b3461013b575f36600319011261013b57602060405160128152f35b3461013b57602036600319011261013b576102606106dd565b6040519063903a384360e01b82525f60048301525f602483015260018060a01b031660448201525f60648201526001608482015260208160a481305afa80156102e8575f906102b5575b602090604051908152f35b506020813d6020116102e0575b816102cf60209383610749565b8101031261013b57602090516102aa565b3d91506102c2565b6040513d5f823e3d90fd5b3461013b575f36600319011261013b57602060405160068152f35b3461013b575f36600319011261013b576040516006602160991b018152602090f35b3461013b57602036600319011261013b57602061035361034e6106dd565b610864565b604051908152f35b3461013b5760a036600319011261013b576044356001600160a01b038116810361013b576103876106f3565b5060843590811515820361013b576020916103539161079d565b3461013b575f36600319011261013b575f546040516001600160a01b039091168152602090f35b3461013b575f36600319011261013b57602060405173833589fcd6edb6e08f4c7c32d4f71b54bda029138152f35b3461013b575f36600319011261013b576020600154604051908152f35b3461013b57602036600319011261013b577f69fc7dfb4a645ccecbe60d1e73051c909cc9ba718cc8e5273d104120f8a861ca60406004356104526108c7565b61045d811515610709565b600454908060045582519182526020820152a1005b3461013b57602036600319011261013b5760206001600160a01b036104956106dd565b1673833589fcd6edb6e08f4c7c32d4f71b54bda0291381149081156104e5575b81156104c7575b506040519015158152f35b73cbb7c0000ab88b473b1f5afd9ef808440eed33bf915014826104bc565b6006602160991b01811491506104b5565b3461013b575f36600319011261013b5761050e6108c7565b5f80546001600160a01b0319811682556001600160a01b03167f8be0079c531659141344cd1fd0a4f28419497f9722a3daafe3b4186f6b6457e08280a3005b3461013b57602036600319011261013b577f7cf26db90545edf0c590c37b7fb1a1f65711d1ba7fa5abd55c2480e3f927c7ee604060043561058c6108c7565b600254908060025582519182526020820152a1005b3461013b57602036600319011261013b576105ba6106dd565b6040519063903a384360e01b82525f60048301525f602483015260018060a01b031660448201525f60648201525f608482015260208160a481305afa80156102e8575f906102b557602090604051908152f35b3461013b575f36600319011261013b576020600354604051908152f35b3461013b57602036600319011261013b577f020da953811fa05fcdd985f7cad937989af9ea4eef7b814c124efd5c1e56560b60406004356106696108c7565b600154908060015582519182526020820152a1005b3461013b57602036600319011261013b577fb4f35977939fa8b5ffe552d517a8ff5223046b1fdd3ee0068ae38d1e2b8d001660406004356106bd6108c7565b6106c8811515610709565b600354908060035582519182526020820152a1005b600435906001600160a01b038216820361013b57565b606435906001600160a01b038216820361013b57565b1561071057565b60405162461bcd60e51b815260206004820152601160248201527005072696365206d757374206265203e203607c1b6044820152606490fd5b90601f8019910116810190811067ffffffffffffffff82111761076b57604052565b634e487b7160e01b5f52604160045260245ffd5b8115610789570490565b634e487b7160e01b5f52601260045260245ffd5b901561085b57600154905b6001600160a01b031673833589fcd6edb6e08f4c7c32d4f71b54bda0291381036107d0575090565b6006602160991b01810361081d575064e8d4a5100081029080820464e8d4a510001490151715610809576003546108069161077f565b90565b634e487b7160e01b5f52601160045260245ffd5b73cbb7c0000ab88b473b1f5afd9ef808440eed33bf1461083c57505f90565b606481029080820460641490151715610809576004546108069161077f565b600254906107a8565b6001600160a01b031673833589fcd6edb6e08f4c7c32d4f71b54bda0291381146108c1576006602160991b0181146108ba5773cbb7c0000ab88b473b1f5afd9ef808440eed33bf146108b4575f90565b60045490565b5060035490565b50600190565b5f546001600160a01b031633036108da57565b63118cdaa760e01b5f523360045260245ffdfea26469706673582212208931a47ceada073d59bada50327f24a0dbae5995b40f2e92f880c9bdf238c11364736f6c634300081e0033","linkReferences":{}},"methodIdentifiers":{"CBBTC()":"d99a3291","CBBTC_DECIMALS()":"fd46b80b","USDC()":"89a30271","USDC_DECIMALS()":"c1419def","WETH()":"ad5c4648","WETH_DECIMALS()":"d08aef7c","btcPriceUsdc()":"d4520f97","calculateFee(uint256,uint256,address,address,bool)":"903a3843","ethPriceUsdc()":"5a8557ec","getFeeRate()":"84e5eed0","getPrivateFee(address)":"6531b6dc","getPrivateFeeRate()":"5ec4de26","getPublicFee(address)":"ce31c911","getTokenPriceUsdc(address)":"977b3dc7","isTokenSupported(address)":"75151b63","owner()":"8da5cb5b","privateFeeUsdc()":"f2fe6325","publicFeeUsdc()":"52302637","renounceOwnership()":"715018a6","setBtcPrice(uint256)":"82c99860","setEthPrice(uint256)":"009f9262","setPrivateFee(uint256)":"65b6b5cb","setPublicFee(uint256)":"51b8dc73","transferOwnership(address)":"f2fde38b"},"id":30}